:100000000C94FB050C9418060C9418060C94BF3045
:100010000C9418060C9418060C9418060C941806E8
:100020000C9418060C9418060C94C7150C94F5192A
:100030000C9455280C9418060C9418060C94180669
:100040000C9418060C9418060C9418060C941806B8
:100050000C9418060C94A0160C9418060C94180610
:100060000C9418060C9418060C9418060C94180698
:100070000C9418060C9418060C9418060C94180688
:100080000C9418060C9418060C9418060C94180678
:100090000C9418060C9418060C9418060C94180668
:1000A0000C9418060C9418060C9418060501090205
:1000B000A10185020901A1000509190129081500FE
:1000C0002501950875018102050109300931158165
:1000D000257F95027508810609381581257F9501D0
:1000E00075088106050C0A38021581257F95017572
:1000F000088106C0C005010980A101850319012AF4
:10010000B700150126B700950175108100C0050CD8
:100110000901A101850419012AA002150126A002E6
:10012000950175108100C005010906A1018506052C
:100130000719E029E71500250195087501810205D9
:1001400007190029EF1500250195F07501810205B9
:10015000081901290595057501910295017503910D
:1001600001C00660FF0961A1010962150026FF00B8
:100170009520750881020963150026FF00952075FA
:10018000089102C005010906A101050719E029E748
:1001900015002501950875018102950175088101F9
:1001A0000507190029FF150026FF0095067508812F
:1001B000000508190129051500250195057501910E
:1001C00002950175039101C00000000000000000CD
:1001D000000000000000000000000000000000001F
:1001E0000000000000000000000000007E0F00D4AE
:1001F000FFFFFFC7000000780000000000000000C3
:100200002A2B280000000000000000000000000071
:1002100000000029000000002C1E3420212224347C
:100220002627252E362D3738271E1F20212223244E
:1002300025263333362E37381F0405060708090AEA
:100240000B0C0D0E0F101112131415161718191A86
:100250001B1C1D2F3130232D350405060708090A04
:100260000B0C0D0E0F101112131415161718191A66
:100270001B1C1D2F3130354C00DA0281FFD9F1DB18
:1002800020A4A62EAF00A0C0D30000A1C8D30000B8
:10029000AED580A81F408D1420000001010101018E
:1002A000010101010202020202020202020303032F
:1002B00003030303030404040404040405050505FF
:1002C00005060606060607070707070808080809BF
:1002D0000909090A0A0A0B0B0B0C0C0C0D0D0D0E6B
:1002E0000E0E0F0F0F101011111112121313141400
:1002F000151516161717181819191A1A1B1B1C1D75
:100300001D1E1E1F202021222223242425262627CD
:100310002829292A2B2C2D2D2E2F303132323334FF
:1003200035363738393A3B3C3D3E3F404142434405
:1003300045464748494A4C4D4E4F505153545556E7
:1003400058595A5B5D5E5F616264656668696B6C93
:100350006D6F7072737577787A7B7D7E808283850E
:1003600087888A8C8E8F91939596989A9C9EA0A24E
:10037000A3A5A7A9ABADAFB1B3B5B7BABCBEC0C258
:10038000C4C6C9CBCDCFD1D4D6D8DBDDDFE2E4E71C
:10039000E9EBEEF0F3F5F8FAFDFF07087F08070038
:1003A0003E5B4F5B3E003E6B4F6B3E001C3E7C3E17
:1003B0001C00183C7E3C18001C577D571C001C5E1E
:1003C0007F5E1C0000183C180000FFE7C3E7FF0039
:1003D000001824180000FFE7DBE7FF0030483A066A
:1003E0000E00262979292600407F05050700407F59
:1003F00005253F005A3CE73C5A007F3E1C1C080084
:10040000081C1C3E7F0014227F2214005F5F005FE7
:100410005F0006097F017F00006689956A006060C1
:100420006060600094A2FFA2940008047E040800AB
:1004300010207E20100008082A1C0800081C2A082A
:1004400008001E10101010000C1E0C1E0C0030387E
:100450003E383000060E3E0E060000000000000090
:1004600000005F000000000700070000147F147FF9
:100470001400242A7F2A12002313086462003649DC
:1004800056205000000807030000001C2241000015
:100490000041221C00002A1C7F1C2A0008083E087C
:1004A00008000080703000000808080808000000FC
:1004B000606000002010080402003E5149453E00E3
:1004C00000427F4000007249494946002141494DA0
:1004D00033001814127F10002745454539003C4A67
:1004E000494931004121110907003649494936007F
:1004F000464949291E000000140000000040340055
:1005000000000008142241001414141414000041C7
:10051000221408000201590906003E415D594E00AF
:100520007C1211127C007F49494936003E4141410D
:1005300022007F4141413E007F49494941007F09F6
:10054000090901003E41415173007F0808087F00FE
:1005500000417F4100002040413F01007F081422FC
:1005600041007F40404040007F021C027F007F042A
:1005700008107F003E4141413E007F090909060005
:100580003E4151215E007F0919294600264949490B
:10059000320003017F0103003F4040403F001F2025
:1005A00040201F003F4038403F00631408146300A0
:1005B0000304780403006159494D4300007F414121
:1005C0004100020408102000004141417F00040264
:1005D00001020400404040404000000307080000C2
:1005E0002054547840007F28444438003844444420
:1005F0002800384444287F00385454541800000818
:100600007E09020018A4A49C78007F0804047800E6
:1006100000447D4000002040403D00007F10284401
:10062000000000417F4000007C04780478007C08D2
:1006300004047800384444443800FC18242418008A
:1006400018242418FC007C0804040800485454545E
:10065000240004043F4424003C4040207C001C2033
:1006600040201C003C4030403C00442810284400FE
:100670004C9090907C004464544C440000083641F7
:100680000000000077000000004136080000020171
:10069000020402003C2623263C000000000000006B
:1006A000404040F0F8F8FF38FFF8F83FF8F8FF381E
:1006B000FFF8F8F040404000000000000080C0C09B
:1006C000C0800000C0C08000000080C0C000C0C06A
:1006D000000080C0C00000000000C0C0C0C0C0005A
:1006E000C0C000000000000000000000000000008A
:1006F00000000000000000000000000000000000FA
:1007000000000000000000000000000000000000E9
:10071000000000000000000000C0F0F8FC3E1E06D3
:10072000010000007F4141417F007F4141417F0046
:100730000080C0E07E5B4F5BFEC00000C000DCD7E5
:10074000DEDEDED7DC00C00000000000000000009C
:100750000000000000000000000000000000000099
:10076000494949FFFFFFFFE0DFBFBF00BFBFDFE038
:10077000FFFFFFFF49494900000000001F3F606084
:10078000E0BF1F007F7F071E381E077F7F007F7F2F
:100790000E1F3B716000000000007F7F0C0C0C00FE
:1007A0007E7E007F7E0303007F7E03037E7E030345
:1007B0007F7E000F3E703C063C703E0F00327B494E
:1007C000493F7E007F7E0303001E3F69696F26005C
:1007D000000000000000000000030F1F3F3C787085
:1007E000600000007F4141417F007F4141417F0027
:1007F000307B7F7830202030787F3B0003000F7FF4
:100800000F0F0F7F0F00030000000000000000002A
:1008100000000000000000000000000000000000D8
:10082000010101070F0F7F0F7F0F0F7E0F0F7F0F4B
:100830007F0F0F0701010100000000000000000011
:1008400000010100000000000000000000000000A6
:100850000000000000000000000000000000000098
:100860000000000000000000000000000000000088
:100870000000000000000000000000000000000078
:100880000000000000000000000000000000000068
:100890000000000000000000000000000000000058
:1008A0000000000000000000000000000000000048
:1008B0000000000000000000000000000000000038
:1008C0000000000000000000000000000000000028
:1008D0000000000000000000000000AF00AE435028
:1008E000534C4B000A0A00556E646566004C6F77E6
:1008F000657200526169736500426173650A004C5C
:1009000041594552000A0A004D6F640A00436C6D5C
:100910006B0051777274000A0A008081828384859B
:10092000868788898A8B8C8D8E8F9091929394A0E4
:10093000A1A2A3A4A5A6A7A8A9AAABACADAEAFB02F
:10094000B1B2B3B4C0C1C2C3C4C5C6C7C8C9CACB9B
:10095000CCCDCECFD0D1D2D3D40029001E001F00E1
:100960002000210022002B0014001A0008001500AE
:100970001700350004001624072209210A00E100AF
:100980001D001B00060019000500E000E300E20066
:100990002C412800A8002A0027002600250024005A
:1009A000230030002F0012000C0018001C0034003F
:1009B00033000F240E320D310B00380037003600A3
:1009C00013001000110031002E002D0022522C00C7
:1009D0000000010001000100010001000100010010
:1009E00001000100010001000100010001000100FF
:1009F00001000100010001000100010001000100EF
:100A000001000100010001000100010001000100DE
:100A1000010001002E002D00350001000100010041
:100A200026002500240001000100280023002200E8
:100A3000210001000100010020001F001E00010034
:100A40000100010027000100010001003A003B0005
:100A50003C003D003E0001000100010001000100DA
:100A6000010001000100010001000100010001007E
:100A7000010001000100010001000100010001006E
:100A8000010001000100010043004200410040005C
:100A90003F00010001000100010001000100010010
:100AA00001004F0052005100500001000100010000
:100AB000010001000100010001000100010001002E
:100AC0000100000000000000000000000000007CA9
:100AD0000000000000000000000000000000000016
:100AE0000000000000000000000000000000000006
:100AF00000000100010001000100010000000000F1
:100B000000000000000000000000000000000000E5
:100B100000000000000000000000A900A800AA00DA
:100B2000000000000000AB00AE00AC0000000100BF
:100B300001000100010001000000A900AA004B0013
:100B40004E00010001000100010001000100010050
:100B50000100010001000100010009025B00030126
:100B600000A0FA090400000103010100092111019C
:100B70000001224400070581030800010904010067
:100B800002030000000921110100012222000705D3
:100B9000820320000107050303200001090402006D
:100BA000010300000009211101000122B600070520
:100BB0008403200001120100020000000832FC87BB
:100BC000020100010200010C0353006F0066006C7B
:100BD00000650000001A034A006F0073006500669C
:100BE000004100640061006D00630069006B00005B
:100BF00000040309040011241FBECFEFDAE0DEBFBA
:100C0000CDBF12E0A0E0B1E0EEE5F6E602C005904F
:100C10000D92A03EB107D9F727E0A0EEB2E001C0E7
:100C20001D92A936B207E1F70E947C280C94C432C9
:100C30000C940000482F2091650790912C0757E0F5
:100C4000291302C080E0089530E0529FF001539FC5
:100C5000F00D1124E35DF84F8181681306C0808197
:100C6000481303C085818111EECF2F5F3F4F27705E
:100C7000E7CFE8EDF0E080818E7F80831092E20084
:100C80001092DA001092E100A0EEB0E08C91816049
:100C90008C9380818F77808319BCA7EDB0E08C9115
:100CA0008E7F8C9380818F7E8083109215070895AC
:100CB0002091E4003091E50095E6A9012091EC0037
:100CC000822F817020FF06C08091E80080FF06C05F
:100CD00080E008952091E80022FD1AC0809122074B
:100CE000882389F0853089F08091EB0085FD0FC065
:100CF0002091E4003091E50042175307F9F291503A
:100D0000E1F684E0089582E0089583E0089581E0AB
:100D100008958091240787FF13C08091E80082FF27
:100D200006C08091E8008B778093E80004C0809132
:100D300022078111F2CF0895809122078823D9F3E9
:100D40008091E80080FFF8CF8091E8008E77ECCFAB
:100D5000982F9093E900242F762F50E0891731F0D7
:100D60007091EC002091ED005091F00021FD07C042
:100D70009F5F973071F78093E90081E0089530918B
:100D8000EB003E7F3093EB003091ED003D7F3093E0
:100D9000ED003091EB0031603093EB007093EC008C
:100DA0002093ED005093F0002091EE0027FDE0CF5E
:100DB00080E00895B0E0A0E0E0EEF6E00C94F931B8
:100DC000C8EDD0E088818F7E8883E7EDF0E08081F8
:100DD0008160808384E082BF81E0809315078881F1
:100DE0008E7F888302EE10E0F80110821092DA0004
:100DF00081EEC82ED12CF601108288818F778883EE
:100E000088818068888388818F7D888319BC10924F
:100E1000220710922307109221071092200790EECC
:100E2000E92EF12CF70180818B7F8083888181609E
:100E3000888342E060E080E00E94A806F60180819D
:100E40008E7F8083F80180818160808380818860CB
:100E50008083F70180818E7F808388818061888391
:100E6000CDB7DEB7E8E00C941532FC0180912A077B
:100E700090912B0786179707A0F06115710529F44B
:100E80009091E8009E779093E80090E061157105DD
:100E900051F4911108C08091E80082FF34C080E0D5
:100EA0000895BC01F2CF809122078823C1F18530DB
:100EB000C1F18091E80083FD30C08091E80082FD9F
:100EC000EACF8091E80080FFE1CF8091F30020918C
:100ED000F200382F6115710519F02830310558F0EE
:100EE00091E02830310509F090E02091E8002E775C
:100EF0002093E800CBCF81918093F100615071097C
:100F00002F5F3F4FE7CF80912207882341F0853044
:100F100041F08091E80083FFBECF81E0089582E038
:100F2000089583E0089580911707089587E797E76C
:100F3000909301088093000888E19AE00FB6F89436
:100F4000A895809360000FBE90936000FFCF2FB7ED
:100F5000F894609111077091120780911307909196
:100F600014072FBF089590915A019923D1F09091C1
:100F70000E0797FF16C0E82FE695E695E695EE3149
:100F8000E0F4F0E0E651FD4F282F277081E090E07B
:100F900001C0880F2A95EAF7809592818923828380
:100FA0000895E4EEF2E09191891303C0DF011197F7
:100FB0001C9292E0EA3EF907B1F7089590915A0128
:100FC0009923C1F090910E0797FF14C0E82FE69582
:100FD000E695E695EE31F8F4F0E0E651FD4F8770C6
:100FE00021E030E001C0220F8A95EAF78281822B4E
:100FF00082830895A4EEB2E0EFEF90E02D91821786
:1010000051F0EF3F19F4211101C0E92F9F5F963095
:10101000A9F7EF3F09F408950E2E000CFF0BEE51D7
:10102000FD4FE6CFA3E0B0E0E8E1F8E00C94FF313B
:1010300020910C0730910D0728173907A1F09093E4
:101040000D0780930C07E0910A07F0910B0730978A
:1010500051F024E029839B838A830084F185E02D6D
:10106000CE01019609952396E2E00C941B32A3E091
:10107000B0E0EDE3F8E00C94FF31209108073091E7
:10108000090728173907A1F09093090780930807EB
:10109000E0910A07F0910B07309751F023E0298384
:1010A0009B838A830084F185E02DCE01019609950A
:1010B0002396E2E00C941B3280910607882359F0B6
:1010C000E0910A07F0910B07309729F00190F08129
:1010D000E02D0995089580E008958091FB0680FD3C
:1010E00016C081FD16C082FD16C08091FA068823C5
:1010F000A1F0883280F428E0829FC001112468E2C8
:1011000070E00E943232862F672B39F0089582E01A
:10111000089584E0089588E0089581E0089580911D
:10112000FB0680FD14C081FD14C082FD16C08091B5
:10113000F906882381F08E3180F420E5829FC0017A
:1011400011246EE170E00E943232862F089584E10E
:10115000089588E2089588E0089580E50895282F8D
:1011600035EB2303C001112497FF04C08058910977
:10117000892F089580589F4FFBCFFC01680F791F7E
:101180008FEF91E32191822728E030E087FF09C0AB
:10119000880F892721503109C9F7E617F70791F71A
:1011A0000895880FF7CF90E06623A1F0875A9E4FED
:1011B000FC0120812F3F89F0E22FE295EF70F0E0F3
:1011C00080A190E02F7002C0959587952A95E2F74F
:1011D00081700895885A9E4FEBCF80E0089590E08B
:1011E0006623E9F0875A9E4FFC0180818F3FB1F062
:1011F000E82FE295EF70F0E041A18F7021E030E040
:10120000B90102C0660F771F8A95E2F7CB01962FCE
:101210009095942391A392A1892B82A30895885A33
:101220009E4FE2CF9091F306E92FF0E04091F40653
:101230009F012F5F3F4F2370332742171306A9F0FA
:10124000EB50F94F282F2F7780818078822B60FB1D
:1012500087F980839F5F93709093F3068091F106E6
:101260008F5F8093F10681E0089580E00895FA0190
:10127000811101C0FB0109950895309107073111D3
:1012800023C0843291051CF18497FC01EE0FFF1FEF
:10129000DF01A80FB91FAD51BC4F11963C911197BA
:1012A000361307C03C91341304C012963C91321798
:1012B00071F031E03093E203E80FF91FED51FC4F7C
:1012C00061834083228303C084329105F4F2089540
:1012D0001092E2030895EAEDF3E0248130E1231B4C
:1012E00008F420E024838091D90381608093D9039E
:1012F0000895EAEDF3E0248130E1230F08F42FEFA5
:1013000024838091D90381608093D90308959091BB
:10131000DA03937059F08093DB036093DC0340930E
:10132000DD038091D903822B8093D9030895EAEDE0
:10133000F3E0438120E1421B08F440E0818121E099
:10134000628190E00E9487090895EAEDF3E043810D
:1013500020E1420F08F44FEF818121E0628190E0AB
:101360000E9487090895EAEDF3E0628120E1621BA3
:1013700008F460E0818121E0438190E00E948709C8
:101380000895EAEDF3E0628120E1620F08F46FEF67
:10139000818121E0438190E00E9487090895EAED70
:1013A000F3E0818121E0438162818850990B0E94A2
:1013B00087090895EAEDF3E0818190E021E043811F
:1013C000628108960E94870908958091DA038370EC
:1013D00051F084608093DA03109250018091D90318
:1013E000862B8093D90308958091DA03869586959C
:1013F000815009F481E061E00E94E509089561E00F
:1014000081E00E94E50908959FE0899F802D1124C5
:10141000980F993408F098E420910707222321F0CF
:10142000953228F094E20895843208F484E2089515
:1014300080934C018091DA03837080934B010E946A
:101440000B0F83E0809350010895FF920F931F9339
:10145000CF93DF93182F062FF42ED0E0C0E02F2D6E
:10146000402F612FCE010E943D092196C834D1053D
:10147000B1F7CDB7DEB7E5E00C941832B0E0A0E0EC
:10148000E4E4FAE00C94F531182F80914C018113BB
:1014900021C09091DA03937020914B0130E081E0FC
:1014A0009217130609F480E0817080934F018091B8
:1014B000DF0390914E01981739F080934E0140E080
:1014C00060E080E00E94250A112331F0113071F0B4
:1014D00080E02DC081E0E8CF80914F01882339F171
:1014E00040E060E080E00E94250AF2CF80914D014B
:1014F0000E94040A982E092FC090DB03D090DC03D1
:10150000E091DD03F0E0E656FD4FD11028C0F490E5
:10151000DF2DCF2DC92CD12CC01608F495C0809199
:101520000707882309F4A2C081E0043288F690916D
:101530004D019F5F90934D0181110CC082E080931B
:10154000500180914F01811105C0111103C083E04A
:1015500080935001CDB7DEB7ECE00C941132ED2C46
:10156000F12CC4918C2EEC2FF0E026E0C29EC0013D
:1015700011242FEF30E0B9010E94DB318C2D90E077
:10158000880F991FA5E5A69FA001A79F500D1124C4
:10159000841B950BC82ECC0CC80EC9018E199F094F
:1015A0008E9FA0018F9F500D9E9F500D1124D52F0F
:1015B000DC9CC0011124892F9927D901A81BB90BE4
:1015C000CD018E9FD0018F9FB00D9E9FB00D112435
:1015D0005901AC18B108AE9C6001AF9CD00CBE9C08
:1015E000D00C1124CD2CDD242C193D092E9FC001D7
:1015F0002F9F900D3E9F900D1124F92E62307105A2
:10160000A1F050F46115710509F484CF61307105C2
:1016100081F0F52EDB2F7ECF6430710569F080F00C
:101620006630710509F476CFF4CFFC2EC52FD92F83
:1016300071CFFC2ECB2F6ECFF52EDC2FC92F6ACFAA
:10164000C52FD82DFB2E66CFF601E058FD4F8081C7
:1016500090914E01892331F02D2F4F2D6C2FC60113
:101660000E943D09BFEFCB1ADB0A56CF81E0083458
:1016700008F45DCF2DCF80E0089581E08093C4030E
:101680000895F894E82FE295EF70F0E031A1282F4B
:101690002F7081E090E001C0880F2A95EAF7982F1B
:1016A0009095932391A392A1892B82A37894089576
:1016B0000F931F9380910607882329F00E94A707A4
:1016C0001F910F9108950E94A7070091A203109106
:1016D000A3032091A4033091A503600F711F821F03
:1016E000931FEECF90910E0792FF10C041E0282F7C
:1016F0002471243009F040E031E0282F287128308F
:1017000009F030E0431711F02CE0822793FF10C05E
:1017100041E0282F2471243109F040E031E0282FE6
:101720002871283109F030E0431711F02CE08227AE
:1017300030910F0730FF10C051E0282F2171213068
:1017400009F050E041E0282F2871283009F040E0EE
:10175000541711F029E0822731FF10C041E0282FF3
:101760002171213109F040E031E0282F2871283122
:1017700009F030E0431711F029E0822794FD877EBD
:10178000089582389105B9F1B0F48133910509F4D7
:101790007DC048F48932910509F46DC08A32910503
:1017A00009F47BC008958533910509F45FC089333E
:1017B000910509F10895833E9105D9F138F4803EF1
:1017C000910529F1823E910579F10895863E9105B2
:1017D000D9F1873E910509F43EC0843E910541F55B
:1017E00020910F0721FF24C080910E0784FD19C0AE
:1017F00087EE90E0089520910E07237009F05AC0FB
:1018000020910F0723FF14C089E290E008952091F2
:101810000E0720FD38C030910F0730FF09C024FFAC
:1018200043C090E080E0089520910E0722FDF7CF9D
:10183000089520910E0722FD3AC030910F0730FD28
:1018400039C024FFF5CFEDCF20910E0723FFF0CF55
:1018500024FDE7CFCDCF20910E0723FD2EC0309180
:101860000F0731FFEECF84EE90E0089520910E0730
:1018700025FFDECFC9CF20910E0725FD21C0209185
:101880000F0723FFD5CF89E390E0D2CF20910E0739
:1018900026FFCECF8AE290E0089520910E0726FF22
:1018A000C7CF81E390E0089583EE90E0089582EE43
:1018B00090E0089580EE90E0089586EE90E008951F
:1018C00085E390E008951F93CF93DF930E94C10BAF
:1018D000EC01C11580E5D807F0F5C11580E4D80703
:1018E00008F09CC0C03ED10520F5CD3CD10508F0E4
:1018F00082C0C83AD10578F4C53AD10508F073C062
:10190000C130D10519F1209709F1C430D105F0F4A7
:10191000D0E0C0E01BC0C33CD105D0F7C85AD0E02E
:10192000CC0FDD1FCF59DE4F0990D881C02DD46474
:101930000DC0C11580E2D80708F0D1C0C11581E003
:10194000D80708F05AC0C83ED10510F7CE01DF9184
:10195000CF911F910895C03682E5D80718F5C0349D
:1019600082E5D80708F06BC0C03282E5D80708F0DE
:101970005FC0C11582E5D80708F497C02C2F2695C3
:10198000269580E2289F900111248C2F8370C1E05E
:10199000D0E002C0CC0FDD1F8A95E2F7C22BD32B1B
:1019A000DD68D4CFC03A82E5D80760F4C03882E55C
:1019B000D80708F459C0CF71D0E0DC2FCC27C46F12
:1019C000D06AC4CFC03C82E5D80708F462C0C03EEC
:1019D00082E5D80708F09CCFDC2FCC27CC27DF711D
:1019E000C06FD06AB3CFC55AD0E0C25ADE4FC881AB
:1019F000D0E0D064ABCFD065A9CF8D2F0E94720B01
:101A0000182FCE0199270E94C10BC12FD0E0DC2FE7
:101A1000CC27CC27DF71C82BD92B98CFCE019927A3
:101A20000E94C10BCC27DF70C82BD92BD06A8ECF78
:101A3000CF71D0E0DC2FCC27C16FD06A87CF2C2F9D
:101A400026952695277080E2289F900111248C2FDF
:101A50008370C1E0D0E002C0CC0FDD1F8A95E2F7B1
:101A6000C22BD32BDC6872CF2C2F2695269527709E
:101A700080E2289F900111248C2F8370C1E0D0E078
:101A800002C0CC0FDD1F8A95E2F7C22BD32BDA6898
:101A90005DCF8C2F8F710E94720BC82FD0E0DC2F8E
:101AA000CC27CC27DF71D06251CF8C2F8F710E9451
:101AB000720B55E0D695C7955A95E1F7CF70D0E0F7
:101AC000DC2FCC27282F30E084FF05C044E0220F14
:101AD000331F4A95E1F7C22BD32BD06937CF8D2F17
:101AE0008F710E94720B182FCE0199270E94C10B93
:101AF000C12FD0E0DC2FCC27CC27DF71C82BD92B0E
:101B0000D2CF8095909159039823909359030895CB
:101B10008091590390913003892B90912F03992341
:101B200091F0892B90915A01992371F090910E07B1
:101B300097FF0AC09EE12CEE32E040E0915040F465
:101B4000411110922F03089596E024EE32E0F5CF74
:101B5000F90151919F01552389F34F5FEFCF809198
:101B6000650790912C07981301C008958F5F8770C7
:101B7000FACFA82FA77023E0969587952A95E1F7CD
:101B8000FC01EE0FFF1FE80FF91FE60FF71F50E0F3
:101B900040E080E0219130E00A2E02C03695279582
:101BA0000A94E2F721703327042E01C0220F0A9411
:101BB000EAF7822B4F5F5F4F4330510559F7089585
:101BC000292F9A3068F4863090F490E06FE073E04B
:101BD00036E0239F800D911D11240E94B90D0895B8
:101BE0002C5F223020F46CE073E090E0F6CF80E0D0
:101BF0000895262F277091E001C0990F2A95EAF7E2
:101C000023E0769567952A95E1F7FB01EE0FFF1F1C
:101C1000E60FF71FE40FF51F50E040E0682F70E07B
:101C20008191DF0111979B01042E02C03695279503
:101C30000A94E2F7217021952827292328272C933D
:101C40004F5F5F4F4330510559F70895282F862F76
:101C50009A3070F4263058F4622F70E026E0929F9C
:101C6000600D711D11244FE053E00E94F90D08959D
:101C70009C5F9230E0F7622F70E04CE053E0F5CFCC
:101C80008093C40408959091C40421E030E0F901E8
:101C900001C0EE0F8A95EAF7D90102C0AA0FBB1F57
:101CA0006A95E2F7EA2B01C0220F4A95EAF7892FDD
:101CB0008E23E81305C0292B822F0E94400E089521
:101CC00020952923F9CF21E030E001C0220F8A9529
:101CD000EAF720958091C40482230E94400E089563
:101CE00090912E038095892380932E03282F2770AF
:101CF00069F4891759F090910F0792FF07C08695F4
:101D0000869586950E94630E10922E03089521E019
:101D100030E001C0220F8A95EAF78091C404822B3B
:101D20000E94400E08958093B2030895982F9295D3
:101D30009F7011F0892F94E0282F2695269511F099
:101D40009E5F822F869509F09F5F892F08950F93DC
:101D50001F93CF93DF938B01EA0190912207943078
:101D600061F58093E9008FEF9091E800815095FD37
:101D700006C095ED9A95F1F700008111F5CF80919D
:101D8000E80085FF1AC00E945806811111C0809199
:101D9000E80085FD06C08091E8008E778093E8001A
:101DA000F2CFF80181918F018093F100219779F7AB
:101DB0008091E8008E778093E800DF91CF911F91AA
:101DC0000F91089543E050E0BC0184E00E94A70E0B
:101DD000089546E050E0BC0184E00E94A70E0895FB
:101DE00040E250E0BC0184E00E94A70E0895CF932A
:101DF000DF93EC0148E050E0BC0181E00E94A70EB7
:101E000088E0FE01A8E1B7E001900D928A95E1F724
:101E1000DF91CF9108958091E203882341F1539A95
:101E20003BB1377F2BB128604FB7F89483EE93E036
:101E3000FC015191CF0168E02BB9000000C057FFB1
:101E40003BB9550F000000C000C000C03BB900C046
:101E50006A9591F7F4E08B3B9F0751F74FBF8FE5F1
:101E600094E00197F1F700C000001092E20308959A
:101E7000B0E0A0E0EEE3FFE00C94F7317C015B0101
:101E80006A018091A10301E010E08A3010F40AE0B9
:101E900010E0C1E0D0E0B501C701F601099581115C
:101EA00004C021960C171D072CF4CDB7DEB7EAE06D
:101EB0000C941332CC9F9001CD9F300D300D112426
:101EC00090E080E045E34A95F1F700000196821723
:101ED0009307C1F7E0CFCF93C82F6FEF811164E272
:101EE00085E290E00E94A0326FEFC11165E086E2CA
:101EF00090E00E94A0326FEFC11169E087E290E0AC
:101F00000E94A032CF910895CF93DF93C9E2D2E02F
:101F100060E0CE010E94A0322196C11584E0D8076E
:101F2000B9F7DF91CF9108950F931F93CF93DF936C
:101F3000142F022F843020F5623010F598E0899F2D
:101F4000E001112484E0689FB0011124C60FD71F5F
:101F5000C75FDD4F82E090E0442311F090E080E025
:101F6000632F8C0F9D1F0E94A03283E090E011230D
:101F700011F081E090E0602F8C0F9D1F0E94A03235
:101F8000DF91CF911F910F9108951F93CF93DF930E
:101F9000122F8430E0F46A30D0F44630C0F4C42FFD
:101FA000D0E0CC0FDD1F9CE0699FC00DD11D112436
:101FB00098E7899FC00DD11D1124632FCE0189960A
:101FC0000E94A032612FCE018A960E94A032DF913A
:101FD000CF911F9108958F929F92AF92BF92DF92FF
:101FE000EF92FF920F931F93CF93DF930AE31BE0CF
:101FF0008AE5E82E89E0F82EC0E05701D0E015C050
:10200000F401259134914D2D6D2F8C2F0E94C50F19
:1020100082E0880E911CD39486E0D812F1CF8CE038
:10202000A80EB11CDF5FDA3019F04501D12CE8CFE2
:10203000F8012591349141E060E08C2F0E94940FCB
:10204000F80132962591349140E060E08C2F0E9497
:10205000940FF80134962591349141E061E08C2F82
:102060000E94940FF80136962591349140E061E08A
:102070008C2F0E94940F085F1F4FCF5F88E7E80EF8
:10208000F11CC43009F0B9CFDF91CF911F910F91AE
:10209000FF90EF90DF90BF90AF909F908F9008954A
:1020A00080E00E946B0F60E088E290E00E94A03226
:1020B0000E94EB0F0E94840F81E00E946B0F089535
:1020C00085E290E00E948232843289F486E290E0D8
:1020D0000E948232853059F487E290E00E94823279
:1020E00091E0893009F090E0892F8170089580E0B7
:1020F000FCCFFF920F931F93CF93DF93F42E843086
:1021000070F5623060F528E0829F8001112434E090
:10211000639FB0011124060F171F075F1D4F82E058
:1021200090E0442311F090E080E0800F911F0E9426
:102130008232C82FD0E0DC2FCC2783E090E0FF2054
:1021400011F081E090E0800F911F0E9482329E0189
:10215000282BC901CDB7DEB7E5E00C94183290E02A
:1021600080E0F8CF0F931F93CF93DF93843030F547
:102170006A3020F5463010F5C42FD0E0CC0FDD1FBB
:102180002CE0629FC00DD11D112438E7839FC00D44
:10219000D11D1124CE0189960E948232082F10E0B1
:1021A000102F0027CE018A960E9482329801282B98
:1021B000C901DF91CF911F910F91089590E080E0C8
:1021C000F8CF7A3048F4663070F4843060F4462FEB
:1021D000672F0E94B21008957D3F41F4623018F4D9
:1021E00041E0843050F090E080E008957C3FD9F7E2
:1021F0006230C8F78430B8F740E00E947910089543
:10220000CF92DF92FF920F931F93CF93DF936C01D6
:102210000091C4048091B203082BC3E0D0E010E029
:10222000FC2EC8010C2E02C0959587950A94E2F702
:1022300080FD0CC02197A0F7F12C8F2DDF91CF915D
:102240001F910F91FF90DF90CF900895B6018C2FD2
:102250000E94E1100E94630C019761F3EECFCF93CF
:10226000DF93EC010E940011BE010E94E1100E9468
:10227000630CDF91CF910895FC0124812223C1F0EA
:10228000808191810E942F1192959F70963091F0DC
:1022900058F4925F9F70923058F4803F19F030F4F8
:1022A000883E30F481E008959A5FF4CF843FD1F303
:1022B00080E00895883EB0F3813FD1F7F3CFA6E0E8
:1022C000B0E0E5E6F1E10C94FE3149835A8349819F
:1022D0005A819923A1F0222391F0CA010E94001192
:1022E000182F682F89819A810E94260E69817A8130
:1022F000812F0E94E1102696E3E00C941A32CA0165
:102300000E94E00D182FF2CF80915A01882359F1D5
:1023100080910E0787FF27C00E94880D8093EB02F3
:1023200040E250E061E373E08AEE92E00E945C32AA
:10233000892BC1F080E2EAEEF2E0A1E3B3E0019084
:102340000D928A95E1F7E0910A07F0910B0730971B
:1023500049F086E08093EA020480F581E02D8AEE60
:1023600092E0099508950E94880D8093E20248E06A
:1023700050E061E573E082EE92E00E945C32892BCE
:1023800089F388E0E2EEF2E0A1E5B3E001900D927E
:102390008A95E1F7E0910A07F0910B07309711F366
:1023A0000280F381E02D82EE92E0DBCF882321F0E2
:1023B0000E94810D0E9484110895882339F0909124
:1023C0005903982B909359030E94841108951F93E9
:1023D000CF93DF93162F8A3039F481E00E948A125E
:1023E000DF91CF911F9108958D3011F480E0F6CFE9
:1023F000C091C104D091C20496E0FE01ABEBB4E001
:1024000001900D929A95E1F7803E90F186E0FE01F1
:1024100011928A95E9F7C091C104D091C2041111BB
:1024200033C046E050E0BE018BEB94E00E945C328A
:102430009E01255E3440892B91F52A5F3F4F4091E4
:10244000C304642F70E0C9010E94DB31481B463091
:1024500010F4240F311D211572E0370710F030E021
:1024600020E02B513B4F3093C2042093C104B8CFDE
:10247000F6E08F9FB001112466567C4F46E050E095
:10248000CE010E945332C7CF9E012A5F3F4FFE010B
:102490002E173F0731F2808180958193F9CFC901D2
:1024A00045E0969587954A95E1F741E050E0BA01FD
:1024B00002C0660F771F8A95E2F7CB016091E706AD
:1024C0007091E806862B972BB9016B5F7F4FE5E093
:1024D00076956795EA95E1F702C0440F551F6A9516
:1024E000E2F7842B952B9093E8068093E706A5CF1F
:1024F0001F93CF93DF93EC01162FFE01849181117E
:1025000004C0DF91CF911F910895612F0E94E711C0
:102510002196F3CFCF93382FE091C104F091C204FC
:10252000E55EF4402091C304622F70E0CF010E9469
:10253000DB31281B822F332369F066E00E942632AC
:10254000C82FC15010F4CF91089560E080E20E943E
:10255000E711F7CF9F01280F311D2115324018F0E8
:1025600080E0F0E0E0E08E0F9F2F911D8B519B4F9C
:102570009093C2048093C104E6CF0E94781281E058
:102580000E948A120895AB0124E630E0BC0188E77E
:102590000E948F2F21E0892B09F020E0822F0895DF
:1025A0008091ED069091F006911103C091E089278A
:1025B0000895882369F062E070E08CED98E00E9455
:1025C000C312811103C08091ED0608951092ED06AB
:1025D0008091ED06EBCFCF93C091ED068091F00690
:1025E0008823D1F00E94A707605A75418F4F9F4FF3
:1025F0006093E9067093EA068093EB069093EC06ED
:10260000C11108C062E070E08AED98E00E94C31238
:10261000811105C0C091ED068C2FCF91089581E006
:102620008093ED06F7CF48E050E068E170E08AED76
:1026300093E00E9490321092D9030895CF92DF92D6
:10264000EF92FF92CF930E94580B6093D003709348
:10265000D1038093D2039093D3032091D803C0E099
:10266000211108C02091DA03C22FC37019F0C22FC4
:10267000C695C695209150012130D1F0222351F00A
:10268000223009F1233019F1CF91FF90EF90DF90C4
:10269000CF90089510924D016093D4037093D503A9
:1026A0008093D6039093D70381E080935001ECCFC1
:1026B0008C2F0E943E0ACC2339F380914D0181502A
:1026C0000E94040AE1CF8C2F0E94180ADDCF80916E
:1026D000D90381110E941313C090D403D090D50365
:1026E000E090D603F090D703809106078823C1F0CD
:1026F0002FB7F8946091110770911207809113071A
:10270000909114072FBF6C197D098E099F096031C4
:1027100071058105910508F4B7CF10925001B4CF2F
:102720000E94580BF0CF90910F0792FB222720F9BF
:10273000281779F080FB92F990930F0760910E07AC
:1027400070910F0784E090E00E94BE3282E00E9408
:10275000700E0895A4E0B0E0E0EBF3E10C94FE31DC
:102760004091990350919A0360919B0370919C034F
:102770002FB7F8948091110790911207A091130739
:10278000B09114072FBF841B950BA60BB70B11E05C
:1027900084369105A105B10570F10E94580B6E5F5A
:1027A0007F4F8F4F9F4F69837A838B839C83809168
:1027B00031019091320188589C4F4091300150E096
:1027C0004530510510F044E050E0BE016F5F7F4F8F
:1027D0000E94693286E090E00E946531182F8823BC
:1027E00051F00E94A7076093990370939A03809316
:1027F0009B0390939C03812F2496E3E00C941A3260
:102800004F925F926F927F928F929F92AF92BF9200
:10281000EF92FF920F931F93CF93DF937B01FB0106
:1028200040805180628073809FB7F8948090110738
:1028300090901207A0901307B09014079FBF8418C0
:102840009508A608B708F4E68F169104A104B10410
:1028500018F4C1E0442329F1C82F880FDD0BFE01D5
:1028600083E0EE0FFF1F8A95E1F7E050FF4F818173
:10287000928188589C4F408150E00417150708F456
:10288000A801B9010E946932CE010E946531C82FAA
:10289000882339F00E94A707F70160837183828340
:1028A00093838C2FDF91CF911F910F91FF90EF9029
:1028B000BF90AF909F908F907F906F905F904F9060
:1028C0000895A9E0B0E0E7E6F4E10C94FD3188E07A
:1028D000EAEDF3E0DE01119601900D928A95E1F7A1
:1028E0008091D803898749E050E060E973E0CE0128
:1028F00001960E945C3241E0892B09F440E009E036
:1029000010E09E012F5F3F4F6DE973E087E00E946A
:1029100000142996E4E00C9419320F931F93CF937F
:10292000DF93EC0145E050E06EE773E00E945C321B
:1029300041E0892B09F440E005E010E09E016FE6DC
:1029400073E082E00E940014DF91CF911F910F91FC
:1029500008954F925F927F928F929F92AF92BF9213
:10296000CF92DF92EF92FF920F931F93CF93DF935B
:102970000F92CDB7DEB7C62E4A015901482E880FF7
:102980005508C2010E946531782E882309F480C061
:10299000C20133E0880F991F3A95E1F7FC01E0503E
:1029A000FF4F438150E04115510511F041E050E0E7
:1029B00080509F4FFC016481758168587C4FCE0127
:1029C00001960E946932F4014081518162817381D4
:1029D0002FB7F8948091110790911207A0911307D7
:1029E000B09114072FBF841B950BA60BB70B843631
:1029F0009105A105B10540F4B701C8010E94BD08C9
:102A00009981891709F444C00C2C000CDD08C6011B
:102A10000E946531782E811113C0712C872D0F9083
:102A2000DF91CF911F910F91FF90EF90DF90CF90AA
:102A3000BF90AF909F908F907F905F904F90089540
:102A4000C60123E0880F991F2A95E1F7FC01E050A9
:102A5000FF4F438150E0E416F50608F4A7018050CB
:102A60009F4FFC016481758168587C4FC5010E94AD
:102A70006932B701C8010E94BD0899818913CDCF81
:102A80000E94A707F4016083718382839383C6CF7A
:102A9000A701B801C5010E946932C0CFA8E0B0E02B
:102AA000E4E5F5E10C94FB3188E0E82EF12C04E834
:102AB00013E09E012F5F3F4F44E753E064E083E063
:102AC0000E94A914082F882389F190918303809193
:102AD0007303981759F110E0909187038091860352
:102AE0008917F1F0E92FF0E0E458FC4F848587FB6B
:102AF000662760F99F5F9370909387039091850399
:102B00009F5F909385038F770E941209182F811180
:102B1000E3CF85E090E00E946531012F082302C0D9
:102B20001111F7CF8091830380937303802F289630
:102B3000E6E00C941732A5E0B0E0E1EAF5E10C9490
:102B4000F9316B0185E0E82EF12C09E713E09E01D5
:102B50002F5F3F4F4BE653E061E080E00E94A914F5
:102B6000882349F095E0FE013196A6E6B3E0019096
:102B70000D929A95E1F795E0E6E6F3E0D601019033
:102B80000D929A95E1F72596E8E00C9415321F9284
:102B90000F920FB60F9211242F933F934F935F9391
:102BA0006F937F938F939F93AF93BF93EF93FF9315
:102BB0008091E10082FF09C08091E20082FF05C0A0
:102BC0008091E1008B7F8093E1008091DA0080FFAB
:102BD00024C08091D80080FF20C08091DA008E7FD1
:102BE0008093DA008091D90080FF9DC080E189BD8B
:102BF00082E189BD09B400FEFDCF81E08093220708
:102C000080911507811109C00E9439060E94DA06D9
:102C10008091E20084608093E2008091E10080FF77
:102C200017C08091E20080FF13C08091E2008E7F88
:102C30008093E2008091E20080618093E2008091C5
:102C4000D80080628093D80019BC85E08093220769
:102C50008091E10084FF2BC08091E20084FF27C0B7
:102C600080E189BD82E189BD89B5982F917080FF8F
:102C7000FBCF8091D8008F7D8093D8008091E100B8
:102C80008F7E8093E1008091E2008F7E8093E2004E
:102C90008091E20081608093E20080912307882385
:102CA00009F447C084E08093220780912207809135
:102CB000E10083FF27C08091E20083FF23C0809161
:102CC000E100877F8093E10082E0809322071092E9
:102CD00023078091E1008E7F8093E1008091E200E4
:102CE0008E7F8093E2008091E20080618093E20019
:102CF00042E060E080E00E94A8068091F0008860D9
:102D00008093F000FF91EF91BF91AF919F918F91D0
:102D10007F916F915F914F913F912F910F900FBED7
:102D20000F901F90189519BC10922207109215074A
:102D300074CF8091E30087FD93E090932207B5CF95
:102D400078941F921FB61F9211248F939F93AF9375
:102D5000BF938091110790911207A0911307B09132
:102D600014070196A11DB11D8093110790931207BE
:102D7000A0931307B0931407BF91AF919F918F91C8
:102D80001F901FBE1F9018959C014FB7F89480911B
:102D9000110790911207A0911307B09114074FBF2C
:102DA000821B930B08952FB7F8948091110790918F
:102DB0001207A0911307B09114072FBF08950E9426
:102DC000D3169C019091020780910307982B21F064
:102DD0003093FF062093FE0690910407809105072B
:102DE000982B21F03093FD062093FC06E0910A0712
:102DF000F0910B07309749F082E08093000706803E
:102E0000F781E02D80E097E009950895109259032D
:102E100080915A01882339F180910E0787FF23C0E2
:102E2000ECEEF2E08EE1DF011D928A95E9F790E089
:102E300080E00E94370890E080E00E941208109223
:102E400030030E94841186E0E0E0F7E0DF011D928C
:102E50008A95E9F71092F9061092FA061092FB068D
:102E60000E94DF160895E4EEF2E086E0DCCFAAE2ED
:102E7000B0E0EDE3F7E10C94FE3184E297E02091BD
:102E8000F100DC012D93CD01B7E08C329B07B9F73F
:102E900080912507833009F472C0B8F4813009F4B9
:102EA00049C0823009F4B3C08091E80083FF8BC22F
:102EB00080912407909125079A3008F084C2E92F69
:102EC000F0E0EA53FD4C0C9446328A3009F48EC08F
:102ED0008B3009F471C0893039F780912407813231
:102EE00019F78091280790912907009711F0029710
:102EF000D9F68091E800877F8093E8008091E80010
:102F000082FF38C09091F3008091F200029731F473
:102F10008091F100813011F0863021F48091F10030
:102F2000809317078091E8008B778093E8000E94D8
:102F30008906BACF80912407813A09F0B5CF8091F4
:102F4000E800877F8093E800809128079091290707
:102F5000892B61F468E088E197E070E00E94350712
:102F60008091E8008B778093E8009ECF60E090E04E
:102F700080E0F3CF809122078111C0CF95CF80915F
:102F80002407813A09F090CF809128079091290772
:102F9000892B09F089CF8091E800877F8093E80032
:102FA0008091E80080FFFCCF80915A018093F1006E
:102FB0008091E8008E77B9CF80912407813209F0A3
:102FC00073CF8091280790912907892B09F06CCF46
:102FD0008091E800877F8093E8000E9489068091B5
:102FE000260780935A010E9406175ECF809124071E
:102FF000813209F059CF8091E800877F8093E80003
:103000000E94890680912707809316074DCF8091F3
:103010002407813A09F048CF8091E800877F8093A8
:10302000E8008091E80080FFFCCF80911607BECFBA
:10303000803899F0823809F0C6C1809128078F70D6
:10304000873008F0C0C18093E9008091EB0085FBD8
:10305000882780F91092E90006C08091200790919E
:103060002107911182609091E800977F9093E8008A
:103070008093F1001092F1008091E8008E779FC15B
:10308000882309F48DC1823009F09DC18091260703
:10309000811190C1809128078F702FEF280F263063
:1030A00008F091C18093E9002091EB0020FF82C1DC
:1030B000933031F48091EB0080628093EB007AC111
:1030C0009091EB0090619093EB0021E030E001C023
:1030D000220F8A95EAF72093EA001092EA00809185
:1030E000EB008860EACF81116EC1109126071F772F
:1030F0008091E3008078812B8093E3008091E80049
:10310000877F8093E8000E9489068091E80080FF15
:10311000FCCF8091E30080688093E30082E011118E
:1031200083E0809322074FC18058823008F04BC162
:1031300020912607309127072C3DE3E03E07A1F5BB
:1031400083E08A838AE289834FB7F894DE0113967D
:1031500020E03EE051E2E32FF0E050935700E4918D
:1031600020FF03C0E295EF703F5FEF708E2F90E07D
:10317000EA30C0F0C7968D939D932F5F243159F7A5
:103180004FBF8091E800877F8093E8006AE270E09B
:10319000CE0101960E9435078091E8008B778093DD
:1031A000E80011C1C096E7CF8091280790912907C8
:1031B000432F55274330510509F44AC078F5413073
:1031C000510509F47AC08BE590E0EAE5FBE0423076
:1031D000510509F0F8C02091E800277F2093E8000E
:1031E00020912A0730912B078217930708F49C013E
:1031F00040E02115310509F065C0411163C080919F
:10320000E80082FDC9CF80912207882329F285300A
:1032100019F28091E80083FFF2CFBECF4132510511
:1032200009F43CC04232510509F0CDC0833091050C
:1032300008F0C9C0FC01EE0FFF1FED52FD4F0190D9
:10324000F081E02D80539D4FDC018C9190E01AC0FD
:10325000332721303105D1F02115310561F02230BD
:10326000310509F0B0C0E7ECFBE0E4918E2F90E06F
:10327000E7ECFBE007C0E1EFFBE0E4918E2F90E08C
:10328000E1EFFBE0009709F49EC0A5CFE5EDFBE080
:10329000E4918E2F90E0E5EDFBE0F4CF83309105D3
:1032A00008F091C0880F991FFC01E752FD4F019073
:1032B000F081E02D89E090E08ECF82E190E0E5EBB7
:1032C000FBE089CF80912207882309F465CF853000
:1032D00009F462CF8091E80083FD5ECF8091E80021
:1032E00082FD8DCF8091E80080FF83CF9091F30025
:1032F0008091F2002115310519F08830910550F0C8
:1033000041E0089709F040E08091E8008E778093D3
:10331000E8006FCF44914093F1003196215031097C
:103320000196E8CF803809F04EC08091E800877F91
:103330008093E800809123078093F1009DCE811156
:1033400042C0109126071230F0F58091E800877F87
:103350008093E800109323070E948906112311F03F
:1033600084E005C08091E30087FDFACF81E080937F
:10337000220742E061EC81E00E94A80642E261EC93
:1033800084E00E94A80642E261EC82E00E94A80666
:1033900042E260EC83E00E94A8068091220713C0FD
:1033A00080912607813079F481E0933009F080E044
:1033B000809321071092E9008091E800877F809335
:1033C000E8000E9489068091E80083FF0AC080918E
:1033D000E800877F8093E8008091EB008062809313
:1033E000EB00AA96E3E00C941A321F920F920FB6EC
:1033F0000F9211242F933F934F935F936F937F937B
:103400008F939F93AF93BF93CF93DF93EF93FF93EC
:10341000D091E900DF708091EC00C82FC17080FD71
:10342000C0E81092E9008091F000877F8093F0005F
:1034300078940E9437171092E9008091F00088601C
:103440008093F000CD2BCF70C093E900FF91EF91F6
:10345000DF91CF91BF91AF919F918F917F916F91AC
:103460005F914F913F912F910F900FBE0F901F9042
:1034700018950E9406172FEF84E39CE021508040AE
:103480009040E1F700C0000088E19AE00FB6F894A0
:10349000A895809360000FBE90936000FFCF40918D
:1034A00002079091040720910507662309F469C07B
:1034B000942B922B20910307922B31F098E090935C
:1034C000F90691E09093FA068D3C41F40E948F0832
:1034D0008195809303070E94DF1608958E3C19F4AE
:1034E0000E948F08F6CF8F3C31F40E948F0881959F
:1034F00080930207F0CF803D19F40E948F08F8CF27
:10350000893D29F40E946D0880930407E4CF8A3D29
:1035100021F40E946D088195F7CF8B3D31F40E9414
:103520006D08819580930507D6CF8C3D19F40E94D4
:103530006D08F8CF9FE2980F983070F4815D990B79
:1035400021E030E001C0220F8A95EAF7809101075F
:10355000822B80930107BFCF8D3D31F48091FB0614
:1035600081608093FB06B7CF8E3D21F48091FB06EE
:103570008260F7CF8F3D09F0AECF8091FB0684606B
:10358000F0CF8D3C59F48091030787FF0DC0109256
:10359000030741110BC01092F90608C08E3C81F45C
:1035A0008091030718169CF3442381F0809104074F
:1035B00090910507892B09F08ECF1092FA068BCFD8
:1035C0008F3C49F447FFF0CF109202078091030728
:1035D0008111ECCFE0CF803D19F41416ACF3E4CFA9
:1035E000893D29F4191604F710920407DDCF8A3DAE
:1035F00019F497FFD9CFF8CF8B3D29F427FFD4CF0B
:1036000010920507D1CF8C3D19F41216CCF3CCCF14
:103610009FE2980F983090F4815D990B21E030E0A3
:10362000B90102C0660F771F8A95E2F7CB0180953A
:1036300090910107892380930107B6CF8D3D31F426
:103640008091FB068E7F8093FB06AECF8E3D21F4EA
:103650008091FB068D7FF7CF8F3D09F0A5CF80913C
:10366000FB068B7FF0CF882381F19CEF980F913A76
:1036700028F40E94B3070E948411089590E2980FE5
:10368000983050F4877091E001C0990F8A95EAF75D
:10369000892F0E94810DEFCF9BE5980F933028F47E
:1036A00090E080E00E943708089598E5980F9B31DC
:1036B00028F490E080E00E941208089593E3980FA8
:1036C000933118F460E00E944F1A0895CF93C82FE9
:1036D0008823B1F18CEF8C0F813AA0F580915A01CB
:1036E000882301F180910E0787FF1CC0EC2FE6951F
:1036F000E695E695F0E0E651FD4F828190E04C2F93
:10370000477021E030E002C0220F331F4A95E2F7F4
:1037100082239323892B79F08C2F0E94B3070E9478
:10372000841109C0E4EEF2E08191C817A9F382E0A8
:10373000EA3EF807C9F78C2F0E94DE070E94841129
:10374000CF91089580E28C0F883068F4C77021E033
:1037500030E001C0220FCA95EAF780915903822B0D
:1037600080935903EBCFEBE5EC0FE33040F4F0E04E
:10377000E25AFE4F808190E00E943708E1CFE8E5F1
:10378000EC0FEB3150F4F0E0EE0FFF1FEF59FE4F5E
:10379000808191810E941208D3CF83E38C0F833103
:1037A00078F661E08C2F0E944F1ACACF1F93CF93F7
:1037B000DF93182FEB010E94661B209739F4812FAD
:1037C0000E94331BDF91CF911F9108958FE99FE0F5
:1037D0000197F1F700C000002197EFCF0F931F93DF
:1037E000CF93DF93C62FD42F022FFC01858188232E
:1037F000A9F0609368070E94D3169093670780939F
:103800006607C77081E001C0880FCA95EAF70E9479
:10381000DD11DF91CF911F910F910895809168077D
:10382000681334C080916607909167070E94C416A0
:103830008C32914058F510E21D0FCD17B9F080E29F
:103840008C0F883040F4C77081E001C0880FCA95A2
:10385000EAF70E94D611183048F481E09D2F977046
:1038600001C0880F9A95EAF70E94DD116AE070E0C6
:10387000802F0E94D61B183060F6D77081E001C0FF
:10388000880FDA95EAF70E94D611C3CFC77081E09E
:1038900001C0880FCA95EAF7F6CFA8E0B0E0E3E5EB
:1038A000FCE10C94F1318C01DC0114968C9114979D
:1038B000882309F4C6C021E04C9111965C911197C0
:1038C00012966C91129713967C91139715969C9172
:1038D0000E945F117C01F8018581882309F472C17F
:1038E000C70197578038910508F099C5FFE0FE158C
:1038F00008F498C08FEF93E00E948232811192C049
:1039000069E2A62E62E0B62EE11056C0FE013396A3
:1039100086E0DF011D928A95E9F75AE0452E750190
:10392000BFEFEB1AFB0AC5010E94823289831A821B
:10393000882309F477C0813009F087C06501E2E08F
:10394000CE0ED11CC7010E9482328A83882309F4DB
:1039500069C09FEF980F9330E8F5F3E0AF0EB11C0C
:10396000C6010E9482328B83882309F45BC01C82CB
:10397000DE0111967D01F7012081222381F22130A1
:1039800009F0A3C091818281913009F060C0F2E01A
:10399000EF0EF11C6AE070E0893311F460E570E02D
:1039A0000E94D61B8FE39CE90197F1F700C000004D
:1039B000FFEFEF1AFF0ADFCFA11424E0B20691F166
:1039C000C5010E948232811101C0EA943FEFA31A1F
:1039D000B30A9ACF5601843059F642E0E42EF12C16
:1039E00056012FEFA21AB20AC6010E948232E1E00C
:1039F000F0E0EC0FFD1FEE0DFF1D8083882391F09A
:103A00008C3741F4E2E0F0E0EC0FFD1FEE0DFF1DFE
:103A10001082AECF3FEFE31AF30A650187E0E816A4
:103A2000F104F1F680912E03877059F0F801858139
:103A3000882339F080910F0782FF03C082E00E9443
:103A4000700E2896E0E10C940D32570191CF923020
:103A500031F422E0E20EF11C0E94661BA3CF9330EA
:103A600031F432E0E30EF11C0E94331B9BCF943003
:103A700021F08FEFE81AF80A95CF92E0E90EF11CD9
:103A800030E020E0B7016F5F7F4FD70111964C9176
:103A90008053990B8A30910568F02115310509F49E
:103AA00081CFEFE9FFE03197F1F700C0000021502E
:103AB0003109F3CF429EF001439EF00D11249C0189
:103AC0002E0F3F1F842F7B01DDCFE22FF0E0E85067
:103AD000FE4F5490822F86958695869590E0FC0146
:103AE000E851FE4F64902770712C022E02C075942D
:103AF00067940A94E2F7A1E06A227724FC01E85275
:103B0000FE4F8490912C022E02C0959487940A94C3
:103B1000E2F7B1E08B229924FC01E853FE4FC490F8
:103B2000D12C02C0D594C7942A95E2F7E1E0CE22C9
:103B3000DD246114710449F081EE0E94661B8FE35D
:103B40009CE90197F1F700C000008114910449F04D
:103B500086EE0E94661BAFE3BCE91197F1F700C047
:103B600000006AE070E0852D0E94D61BEFE3FCE9BF
:103B70003197F1F700C000008114910449F086EEFE
:103B80000E94331B8FE39CE90197F1F700C000000E
:103B90006114710449F081EE0E94331BAFE3BCE96C
:103BA0001197F1F700C00000C114D10409F400CF4F
:103BB0006AE070E08CE20E94D61BEFE3FCE93197EB
:103BC000F1F7F4CEF701E851FC47E730F10508F0D2
:103BD00012C4E053FD4C0C94463226E241EE61EEF5
:103BE000C8010E94EE1B1ECF27E245EE65EEF8CF1E
:103BF00026E241EE60EEF4CF27E245EE64EEF0CF30
:103C000026E241EE62EEECCF27E245EE66EEE8CF2B
:103C100028E241E0EBCF80910E07816080930E0790
:103C200095C080910F07886080930F078FC08091A7
:103C30000E078260F3CF80910E078460EFCF8091F2
:103C40000E078860EBCF80910F078160EDCF8091E8
:103C50000F078260E9CF80910E078061DFCF8091EE
:103C60000E078062DBCF80910E078064D7CF0E9461
:103C7000061780910E078068D1CF80910E078C6067
:103C8000CDCF80910F078360CFCF80910E078E7FBD
:103C9000C5CF80910F07877FC7CF80910E078D7F9B
:103CA000BDCF80910E078B7FB9CF80910E07877FA4
:103CB000B5CF80910F078E7FB7CF80910F078D7F93
:103CC000B3CF80910E078F7EA9CF80910E078F7D95
:103CD000A5CF80910E078F7BA1CF0E940617809100
:103CE0000E078F779BCF80910E07837F97CF8091B0
:103CF0000F078C7F99CF80910E0782FB992790F94F
:103D000021E0922790FB82F990FB83F987CF809185
:103D10000F07982F909591708E7F892B90FB81F9DA
:103D200083CF90910E07892F8F7B96FF806476CF8B
:103D30000E94061790910E07892F97FB87F98058EC
:103D40006DCF61E08EE090E00E94A03260910E079E
:103D500070910F0784E090E00E94BE320E94061727
:103D600061CE60E0EFCF90910E07892F8F7E94FF98
:103D7000806154CF90910E07892F8E7F90FF8160D4
:103D80004DCF90910F07892F877F93FF88604CCF8D
:103D900085E32CC380910A03811104C089E20E944B
:103DA000B30726C385E3FBCF27E7E2162CE7F2062D
:103DB00009F0F0C281E00E94870E43E062E081E0FA
:103DC0000E94430E2FCE8091DA0391E089278093E1
:103DD000DA03109250018091D90381608093D90356
:103DE00021CE44EF59E06FEF79E00E9437091ACEF7
:103DF0004FEF59E064EF79E0F8CF4FEC59E06AED0E
:103E000079E0F3CF4AED59E06FEC79E0EECF43EB88
:103E100059E061EC79E0E9CF41EC59E063EB79E0FE
:103E2000E4CF47E959E065EA79E0DFCF45EA59E0B8
:103E300067E979E0DACF4BE659E069E779E0D5CF79
:103E400049E759E06BE679E0D0CF61E081E00E947C
:103E5000E509E8CD37E7E3163CE7F30609F459C076
:103E600088E7E8168CE7F80609F459C0D8011596DA
:103E70008C911597ED90FC90882309F484C0C701BC
:103E80000E940011D82E682FC7010E94260EB7018C
:103E90008D2D0E94E1100E94630C7C01882EF80198
:103EA000A580968092943FE0932280912E038770A4
:103EB00009F1CA2CAA20F9F08F2D807F803469F097
:103EC00080E28E0D8830B0F08F2D807E803229F414
:103ED000F1E0FE1578F4992069F080910F0782FFD8
:103EE00009C082E00E94700E80912E038770CC245E
:103EF000C3948111C12CBF2CB2942FE0B2222BE0CD
:103F00002B1508F4A8C0EB2DF0E0E952FD4C0C9401
:103F1000463281E00E94630E50CF82E04CCF82E0B7
:103F2000F9CFFBE5EF16FCE7FF0659F12CE5E216A9
:103F30002CE7F206E1F03AE5E3163CE7F30609F078
:103F400095CF81E01BC00E9406178FEF94E3ACE091
:103F500081509040A040E1F700C000000E94960709
:103F60006FEF7FEF90E080E00E94BE322CC2809124
:103F70000F0782FB882780F991E089270E9493131D
:103F800075CF80E0FBCFC7010E94E00DD82E7FCF18
:103F90003F2D3F70D32E8F2D807F19F0D29490EF5C
:103FA000D922AA20B9F0DD2069F080E28E0D883098
:103FB00010F0811009C080915903D82AD09259037A
:103FC0000E9484118E2D45C080913003D82AD09252
:103FD0003003F6CF8E2D0E94331BDD20E1F180E20D
:103FE0008E0D883010F0811004C08D2D0E94810D3F
:103FF00006C0D09480913003D822D09230030E9422
:10400000841129C08F2D8F70D82E8F2D807F803204
:1040100019F0D29480EFD822882059F091E08916C7
:1040200009F479C0AA2009F485C0992009F447C091
:10403000C9CF80910F0782FD3EC0AA20B1F1DD20DB
:1040400039F080915903D82AD09259030E948411E3
:1040500080E00E94661BEB2DE850FF0B349710F4B4
:104060000E945C08CC20B1F080912E0380FD12C02C
:10407000D80115961C928695869586950E94870E86
:10408000C8010E944D1C80912E03869586958695C9
:104090000E94630E20E0F8014081518162817381AA
:1040A000848195810E945F11CCCC80E00E94331BFB
:1040B000DD2089F29ACFAA20A1F0911004C08D2DA5
:1040C0000E94DD11C8CFA1E09A12C5CF80912F03C5
:1040D0009D2D9823D91609F4BECFD82AD0922F034C
:1040E000BACF9110B8CF8D2D0E94D61190912F0389
:1040F0008D2D892329F08D2D8095892380932F0381
:1041000080910B039D2D982309F4A5CFD094D8223C
:10411000D0920B03A0CFAA2029F0B5E0B91508F47E
:104120009ACFCDCFE4E0E91508F495CF8D2D0E940C
:10413000D61191CF9920D1F3F9E38F1223C12FEF3C
:1041400037EE83E0215030408040E1F700C00000AE
:104150008E2D0E94331B7FCF8F2D86958695837081
:1041600061F0813009F077CFC7019370A11002C0D0
:1041700080E090E00E9412086ECFC7019370A110FA
:1041800002C080E090E00E94370865CF6A2D8E2D36
:104190000E944F1A60CF8F2D837091F5A1105BCFD5
:1041A0004E2D429546954770440F440F8E2D8F70CB
:1041B000042E01C0880F0A94EAF72E2D2071E4FE28
:1041C00007C02FE030E001C0220F4A95EAF72095A2
:1041D0003F2D369536953370323069F050F440916A
:1041E000B203313029F0822B84230E94930E33CF07
:1041F000842B822BFACF282B8091B2038227F5CF14
:104200008695AA2011F08F2D8170882309F423CF81
:104210004E2D429546954770440F440F8E2D8F705A
:10422000042E01C0880F0A94EAF72E2D2071E4FEB7
:1042300007C02FE030E001C0220F4A95EAF7209531
:104240003F2D369536953370323069F050F44091F9
:10425000C404313029F0822B84230E94400EFBCE0F
:10426000842B822BFACF282B8091C4048227F5CF90
:10427000BF2DBF70FB2EAA2029F08B2F0E94870E26
:104280008E2D1ECF8E2D0E94D6118F2D0E94630E73
:10429000E2CE8E2DE2EF8E16B1F1E81570F0F0EF60
:1042A0008F16D1F021EF821691F0AA2009F45EC09A
:1042B000911088CE8F2D8F712AC033EF831651F164
:1042C00094EF8912F2CF80910F0782FD2FC08F2DBE
:1042D0008F71AA20D9F21BC0AA2081F0A4E0A915F1
:1042E00008F4B9CE2F2D2F7181E090E001C0880F26
:1042F0002A95EAF79091C4048927AFCFB5E0B915A4
:1043000008F4A9CEEFCF8F2D8F71A110BFCF0E94DF
:10431000870EA1CE80E0AA2009F49FCF9F2D9F7128
:1043200081E001C0880F9A95EAF797CFAA2099F00B
:10433000EF2DEF71FE2E8E2F0E94870E80910F07BA
:1043400082FF07C0F8E0FF9EC001112483608093C4
:104350002E038F2DDCCF81E00E94700E21E0291505
:1043600008F079CE82E00E94700E75CE992079F027
:10437000893341F43FEF87EE93E031508040904025
:10438000E1F7E4CEAFE3BCE91197F1F7DFCE8F2D73
:104390008F717CCFF8E7EF16FCE7FF0609F4BDCD7F
:1043A00093E0E9169CE7F90609F4DACD08F0B9CDF7
:1043B000E114BCE7FB0609F4C6CDE1E0EE16ECE73C
:1043C000FE0609F053CD0E94391A26E1E2162CE7C9
:1043D000F20609F0E9CC809159038A7A91E009F458
:1043E00090E090930A038111D3CC89E20E94DE070A
:1043F0000E94841117CB36E1E3163CE7F30609F47B
:10440000C9CC809159038272F701E052F847E53137
:10441000F10508F01FCDED51FD4C0C944632F7012B
:10442000E851FC47E730F10508F4D3CB1092680758
:10443000C7019057839748F684E090E00E948A3243
:1044400090930F0780930E07F701E150F047E23297
:10445000F10508F0E0CBE850FD4C0C944632CF93C8
:10446000DF9380912D03807F09F04DC080912C0354
:10447000882309F448C0E091650750912C07C0914A
:104480002803D09127036091290370912A0347E004
:104490005E17C9F18E2F90E0E49FF0011124E35DD7
:1044A000F84F2481222391F1489FF001499FF00D9C
:1044B0001124DF01A35DB84F11962C9111972C1395
:1044C00025C02C912D1322C015962C9115972111E2
:1044D0001DC012962D913C91261B370B2C3231407A
:1044E000A8F480912D038F70806180932D03ED5C83
:1044F000F84F80818F708061808387E293E00E9413
:104500004D1C0E94AF0DDF91CF910895FC013196B3
:10451000E770BECFA4E1B0E0E0E9F2E20C94F5313F
:104520008C0186E0F801DE011F9601900D928A95BC
:10453000E1F7F8018481E58097E2A92E93E0B92E96
:1045400090912B03911128C0882319F1EE20F1F0EE
:10455000C8010E943C11F82E8823C1F087E0F801C1
:10456000D50101900D928A95E1F780912B0381305E
:1045700031F480912703909128030E942F110E940B
:104580002F228F2D6496ECE00C941132C8010E940A
:104590004D1CFF24F394F5CFD080C180828093809E
:1045A000F0902C032091290330912A03A401421B8F
:1045B000530B9A01FF2009F4D9C02C32314008F086
:1045C00092C08823F1F29091280380912D03282F27
:1045D000207F09F056C0C91214C090912703D91248
:1045E00010C0E11048C08F70806180932D0387E276
:1045F00093E00E944D1C80912D03F8018683F12CDD
:10460000C0CFE11038C06C2D8D2D0E941A066C2D84
:104610008D2D0E941A06E82E8111F1CFDF86C88AFF
:104620008F8598890E942F11292F22952F70243071
:1046300058F49F70223088F0992399F0F801968100
:10464000907F79F4FE2C9DCF2A5F2F70223068F086
:10465000C8010E944D1CEF2CF5CF992311F088233F
:1046600089F3805E883070F3F3CF803F58F3815F29
:10467000833070F7E7CF80912D03816080932D0305
:10468000BECFC91207C090912703D91203C0EE20F4
:1046900009F48EC0C8010E943C11882309F476CF2A
:1046A000EE2009F473CF80912D03803288F02091A1
:1046B000270330912803398728879B868A86909123
:1046C0002B039C871D868E87CE0108960E944D1C69
:1046D00087E0F801A7E2B3E001900D928A95E1F737
:1046E0000E942F2256CF90912D03292F207F51F425
:1046F00087E293E00E944D1C87E0F50111928A95B4
:10470000E9F77DCF882309F43CCF809128038C11F1
:1047100010C080912703D8120CC0E1100AC0968304
:10472000C8010E944D1C87E0F50111928A95E9F7B6
:1047300028CFC8010E943C11882309F427CFEE201E
:1047400009F424CF80912D03803210F220912703A9
:10475000309128033A8329839C828B8290912B038A
:104760009D831E828F83CE010196B0CF4C32514083
:10477000D0F6882309F40DCFFE2CEE2009F406CFE5
:10478000809128038C1121C080912703D8121DC06D
:1047900080912D0380FD10C0982F907F69F0F80163
:1047A0008683903F31F0982F907F905F8F70892B98
:1047B0008683C8010E944D1C87E0F801A7E2B3E0A0
:1047C00001900D928A95E1F7DCCEC8010E943C1160
:1047D00081117ECF80912D03816080932D03C801CC
:1047E0000E944D1CCECEABE1B0E0E9EFF3E20C94B9
:1047F000FD314E8B5F8B688F798F8A8F9B8F192F3E
:104800009111109230031D8A86E0FE017696DE013A
:104810001F9601900D928A95E1F70A8D002341F0D1
:1048200021E04F85588969897A89C8010E945F1102
:104830000B8B1C8B87E0FE013F96DE0118960190E2
:104840000D928A95E1F7CE0108960E948A22811185
:104850000CC087E0FE013896DE01119601900D92A2
:104860008A95E1F78C8581110BC017E0809165076F
:1048700090912C07891331C06B96E4E00C941932A7
:1048800020912C0730E0C90101968770992740914B
:1048900065074817190699F097E0929FD001939FFA
:1048A000B00D1124A35DB84FFE01319601900D9219
:1048B0009A95E1F780932C070E94AF0DD6CF0E9406
:1048C000061710922C071092650787E0E7E2F3E0E5
:1048D000DF011D928A95E9F7C8CF819FC00111249D
:1048E000835D984F0E948A22882331F28091650768
:1048F00090E001968770992780936507B7CFACE069
:10490000B0E0E5E8F4E20C94F83180E00CEF93E0DD
:10491000F92EEE24E3942DEFD22E32E0C32E9091A7
:10492000F4062091F306291709F454C0E92FF0E0AA
:10493000EB50F94F108117FBBB24B0F81F779F5F36
:1049400093709093F4068091F2068F5F8093F20645
:10495000B11008C00E94D3161F8308879A878987E1
:10496000FB8607C00E94D3161F83D8869A87898743
:10497000CB86EC864F81588569857A858B859C85A9
:104980000E94F3238FE39CE90197F1F700C0000038
:10499000BB20C1F00E94D3161983DA829C838B83DB
:1049A000CD821E8249815A816B817C818D819E815D
:1049B0000E94F3238FE39CE90197F1F700C0000008
:1049C00081E0ADCF0E94D31619830A839C838B8329
:1049D000FD82E7CF2C96E9E00C9414322F923F929F
:1049E0005F926F927F928F929F92AF92BF92CF927F
:1049F000DF92EF92FF920F931F93CF93DF938091FB
:104A0000F006882309F483C08091EE069091EF06AA
:104A10000E94C416C29708F45BC00E94D3169093FC
:104A2000EF068093EE0685EE94E09093C2048093A7
:104A3000C1048091060760E0882309F482C087E101
:104A400099E00E9478128091C4040E94960E8823F7
:104A500041F0813031F160E088E099E00E94781205
:104A600005C060E082E199E00E94BD1260E085E04F
:104A700099E00E94781260E08FEF98E00E94BD12EA
:104A80008091C4040E94960E823009F452C068F0EE
:104A9000833009F452C060E087EE98E00E94BD12B6
:104AA00009C060E08DE099E0DFCF60E089EF98E039
:104AB0000E94781260E084EE98E00E9478120E94D2
:104AC0005C0881FB662760F98EED98E00E94BD12BC
:104AD0008091E7069091E806892BC1F58091ED065B
:104AE0008823A9F00E94A7070091E9061091EA0621
:104AF0002091EB063091EC06601B710B820B930B3F
:104B00006F3F7F4F8F4F9F4710F40E94D012DF916D
:104B1000CF911F910F91FF90EF90DF90CF90BF90BA
:104B2000AF909F908F907F906F905F903F902F906D
:104B3000089560E083EF98E0BBCF60E08DEE98E0F1
:104B4000B7CF8AE199E00E947812C2CF8091F00637
:104B5000882321F28091E6068111C0CF0E94EB12DA
:104B60002091E7063091E8062115310509F4B6CF0A
:104B700080E041E050E0082F10E01A01082E02C04A
:104B8000220C331C0A94E2F7B10162237323672BD2
:104B900011F48F5FF0CF9091E50690FF95C0880FDC
:104BA000880F880F8093530110925601895F80937C
:104BB000540183E08093570124E630E047E050E061
:104BC00061E571E088E70E944B2F892B09F086CFC1
:104BD000A80125E0440F551F2A95E1F78091E506CD
:104BE00080FF84C0E5ECF4E080E2DF011D928A954D
:104BF000E9F7ACECB2E008EC12E080EDC82E82E000
:104C0000D82E97E0592E772473948D91E80129913D
:104C10008E01240F352F311D2B513B4FE82FF0E033
:104C2000EB53FB4F90E080E0652C681A872C082E30
:104C300001C0880C0A94EAF77901A12CE701B99028
:104C40007E01B820662D6A196770962E062E000C1C
:104C5000770BDB2D01C0DD0F9A94EAF77195619512
:104C600071096770772701C0B6946A95EAF7BD2A83
:104C70006081962E9B289082A39468E0A612DECFD6
:104C8000019631968830910579F6CA16DB0609F04F
:104C9000BCCF04E610E020E230E045EC54E060E4F4
:104CA00088E70E94D52F892B09F018CFE101C09524
:104CB000D0958091E7069091E806C823D923D09338
:104CC000E806C093E7060ACF8295880F8076809326
:104CD00053019801369527953695279520935601CF
:104CE000815E809354012093570166CF4B515B4FF7
:104CF00004E610E020E230E0D2CFAFE0B0E0E3E83D
:104D0000F6E20C94F4318E010F5F1F4F8AE0F80138
:104D100011928A95E9F789E9C82E81E0D82EF12C05
:104D2000E12CAA24A394B12C24EA822E21E0922E15
:104D3000F60181916F018F3F09F442C0F894E82F8A
:104D4000E295EF70F0E021A18F70A50102C0440F41
:104D5000551F8A95E2F7CA01922F982B91A392A131
:104D60008095892382A3789400C0EEE9F1E0712C4C
:104D700031E021912F3F09F4A7C0A22FA295AF7077
:104D8000B0E090968C9190E02F7002C09595879539
:104D90002A95E2F780FD98C0832F782A330F8E166C
:104DA0009F0639F7F601319780818F3F11F00E94FD
:104DB000410B50EA5A95F1F7F801EE0DFF1D708294
:104DC0008FEFE81AF80A95E0E916F10409F0B0CF80
:104DD0004AE050E0B80186EA93E00E945C32009716
:104DE00041F02AE0F801A6EAB3E001900D922A957D
:104DF000E1F70091B10310E00A531C4F892B09F42D
:104E000065C081E080935E030E94D31690935D039A
:104E100080935C03D12CC0900607CC2009F4ADC070
:104E20007E01EBE0EE0EF11C85E0F70111928A9510
:104E3000E9F78091A1038A3008F06CC04BE955E195
:104E4000B701C8010E94380F882309F485C04DE8D6
:104E500054E1B701C8010E94380F882309F47CC0CF
:104E60004EE455E1B701C8010E94380F882309F4C8
:104E700073C04AEA53E1B701C8010E94380F882382
:104E800009F46AC041E654E1B701C8010E94380F35
:104E9000882309F461C01092A1038091B00390E0CF
:104EA00045E050E0B7018A539C4F0E945C3221E0FC
:104EB00020936503892B09F042C0C12C8C2D8D29CC
:104EC0002F96EDE00C94103280E067CFD0905E0317
:104ED000DD2009F49FCF80915C0390915D030E94D7
:104EE000C416059708F496CF45E050E066EA73E0F3
:104EF000C8010E945C32892B59F085E0E6EAF3E0B4
:104F0000D80101900D928A95E1F710925E0383CF4C
:104F1000D12CFBCF80915F03909160030E94C41657
:104F2000843F914008F08ACF80916503882329F25D
:104F300085E0F70111928A95E9F710926503A09137
:104F4000B003B0E0AA53BC4F85E0FE013B96019050
:104F50000D928A95E1F7B2CF8091A1038F3F31F096
:104F60008F5F8093A1038A3008F497CF0E94D316F5
:104F70009093600380935F03D7CFE090B003F12C50
:104F8000A7014A535C4F7A0185E0F801A9E7B3E035
:104F900001900D928A95E1F765E070E089E793E072
:104FA0000E94BD088093780385E0EEE7F3E0D70127
:104FB00001900D928A95E1F788E0E1EFF6E0A4E830
:104FC000B3E001900D928A95E1F768E070E084E823
:104FD00093E00E94BD088093830380908C0390909F
:104FE0008D03A0908E03B0908F0380916103909108
:104FF0006203A0916303B091640388169906AA0620
:10500000BB06B1F08092610390926203A0926303A9
:10501000B09264030E94A707861A970AA80AB90AE1
:105020008092A2039092A303A092A403B092A5033E
:1050300088E0E0E9F3E0AAEDB3E001900D928A95F3
:10504000E1F710919803112349F08091D803811161
:1050500005C00E943E0A80E00E94180A1093D803FF
:105060002DCFA6E0B0E0E7E3F8E20C94FD310E941A
:10507000D3168C0180915A0390915B03801791079E
:1050800081F019821A820E94D316682F49815A81B1
:10509000792F80E090E00E94F32310935B0300934C
:1050A0005A032696E4E00C9419321F921FB61F9201
:1050B00011248F939F93AF93BF9380911007811119
:1050C00013C08091110790911207A0911307B0911E
:1050D00014074196A11DB11D8093110790931207EB
:1050E000A0931307B0931407BF91AF919F918F9135
:1050F0001F901FBE1F901895CDB7DEB7A7970FB6AC
:10510000F894DEBF0FBECDBF85B7806885BF85B779
:10511000806885BF84B7877F84BF0FB6F894A89551
:1051200080916000886180936000109260000FBEE3
:1051300080E890E00FB6F89480936100909361004E
:105140000FBE8BE39BE09093E1028093E0020E940C
:1051500039060E94DA068091E20084608093E200C2
:105160007894809122078823A1F01091E9001F70A4
:105170009091EC00892F817090FD80E8182B10929F
:10518000E9008091E80083FD0E9437171F7010939B
:10519000E90082E084BD93E095BD9AEF97BD8093CE
:1051A0006E001092A2031092A3031092A403109217
:1051B000A5030E946010811102C00E9450108091CE
:1051C000D80080618093D8002AE12A95F1F700C0C9
:1051D0008091D900182F117080FD04C00E943906FB
:1051E00010922207109306071093070710934001AF
:1051F00011110E947930E1EFF6E088E0DF011D92A5
:105200008A95E9F78091400191E089278093C00356
:10521000809140019093C3038091400180914001AF
:10522000811106C084EF8093580185EF8093590166
:1052300060E080E00E94EF0861E080E00E94EF08FB
:10524000EFE8F1E03197F1F700C0000010E0809145
:10525000C303181708F4D5C0809140018091400124
:1052600095E0811190E09093B10385E0891B8093D4
:10527000B00309E911E07EE9E72E71E0F72ED801CD
:105280008D918D018F3F11F00E94410BE016F106C8
:10529000B1F70EE911E064EAE62E61E0F62EF801BE
:1052A00081918F018F3F11F00E94410BE016F106B2
:1052B000B1F78AE0E6ECF3E0DF01282F1D922A9592
:1052C000E9F7E6EAF3E0DF011D928A95E9F790E05D
:1052D00080E00E948A32863E9E4F21F40E94601038
:1052E000811168C066EE7EEF90E080E00E94BE32E1
:1052F00060E082E090E00E94A03281E08093B203FF
:1053000061E083E090E00E94A03260E074E184E01C
:1053100090E00E94BE3260E086E090E00E94A03201
:1053200060E087E090E00E94A03240E050E0BA01E7
:1053300088E090E00E94B23260E084E290E00E9457
:10534000A03260E087E190E00E94A03260E08CE053
:1053500090E00E94A03260E08DE090E00E94A032D8
:1053600019821A821B821C821D821E821F8218864D
:1053700048E050E068E170E0CE0101960E94903272
:1053800040E050E0BA0180E290E00E94B23280E05A
:105390000E946B0F0E94501040E050E0BA018FE075
:1053A00090E00E94B23240E050E0BA0183E190E028
:1053B0000E94B23282E090E00E9482328093B30376
:1053C00084E090E00E948A3290930F0780930E074A
:1053D0000E947D26EFEFF6E721E0E150F04020400B
:1053E000E1F700C000000E947D268091C60380FF87
:1053F0001AC06FEF7FEF90E080E00E94BE320E9403
:10540000960760E0812F0E94D308082F61E0812F6A
:105410000E94D308E12FF0E0EF53FC4F880F802B60
:1054200080831F5F14CF83E090E00E9482320E944D
:10543000930E0E94680981E08093D90348E050E010
:1054400068E170E08AED93E00E9472321092D90315
:105450008091DA038C7FB9F485E08093DA03809140
:105460005B0190915C01A0915D018093DB039093BF
:10547000DC03A093DD038FE78093DE038FEF80933F
:10548000DF030E94131380910607882309F4C0C02C
:1054900083E08093E50680FDBDC080E88093C3046F
:1054A0000E94172F6BE070E08FE892E00E94C31219
:1054B0008823E9F18091E50665E070E081FDACC0EC
:1054C0008AE892E00E94C312882389F16DE070E0BF
:1054D00088E792E00E94C312882349F10E94A7073F
:1054E000605A75418F4F9F4F6093E9067093EA06AB
:1054F0008093EB069093EC06E5EEF4E080E092E01A
:10550000DF019C011D9221503040E1F7F093C2046D
:10551000E093C1048FEF9FEF9093E8068093E70636
:1055200081E08093F0068093ED061092E60680916C
:105530000607811102C00E947C3081E491E09093C3
:105540000B0780930A0738E1432E512CBB24B394F8
:1055500040EDE42E43E0F42E52E0C52ED12C809194
:10556000220720E4A22E00E112E1853009F49BC05D
:105570000E947D2604EB13E096EC892E93E0992E91
:105580002EEB33E0D401F80191918D912E173F0756
:1055900009F495C09817C1F3809106078FA3712C69
:1055A000D4016D904D01F80121908F01261439F13D
:1055B0002624A12C33243394822D8321C1F0FFA112
:1055C000FF23A9F0A9A27AA20E94D3169CA38BA3C1
:1055D00021E02DA391E0862D832109F490E09EA384
:1055E00049A15AA16BA17CA18DA10E94F323A39490
:1055F000330C36E0A312E0CFF80131976082739448
:105600008AE07812CDCF0E94580B882483945CC026
:1056100080E03FCF80E242CF85E892E053CF809197
:105620002207843009F431C00E941E138091D803F0
:10563000811105C00E943E0A80E00E94180A31E0F4
:105640003093D8030E94D012109210070FB6F8942E
:10565000A895409260000FBEA092600083B7817F42
:10566000846083BF83B7816083BF7894889583B754
:105670008E7F83BF0FB6F894A895809160008861F3
:1056800080936000109260000FBE809121078823F4
:1056900051F00E947D26E6ECF3E08191811147C331
:1056A000EE16FF06D1F780912207853009F4B7CFB7
:1056B0000E9406170E945C081092D80359CF9813D5
:1056C0006BCF0E943128812C0E941E1390900607F8
:1056D000992019F00E947F24982E8091C40388237A
:1056E00051F01092C4038091F3068093F4068091E8
:1056F000F1068093F206A12C8091C303A81688F0CE
:1057000080910607882319F00E947F24982A992007
:1057100009F443C00E94580B0E94EE240E94EB1231
:1057200040C061E08A2D0E94D308182F60E08A2DC6
:105730000E94D308E12FEE0F8E2B0A2D10E0D80126
:10574000AF53BC4FEC919E2F9370891721F1EE0F50
:10575000EE0FE82BEC938091C0038A0DEF70F0E020
:10576000EC55FE4F02541C4F7080D8019C91790E6D
:105770007C92B1E060E0B71524F0EFEF7E161CF4E8
:1057800061E00E941209872D770C990BB6010E94E7
:105790003232D8018C93A394AFCF0E94EE248110B3
:1057A000BDCF86E0E0E0F7E0DE01119601900D92BA
:1057B0008A95E1F780900107009102071091030795
:1057C00090900407A090050710920207109203071B
:1057D0001092040710920507812F802B09F445C011
:1057E0008091FE069091FF060E94C4169C01909144
:1057F000F906992309F4C4C225313105B0F19F3F60
:1058000019F09F5F9093F906002359F00E948F08CA
:105810009FEF10160CF491E0899F802D1124809346
:105820000207112359F00E948F0891E011160CF025
:105830009FEF899F802D1124809303078091020799
:10584000882399F070900307772079F00E94AF08C1
:10585000882309F4ABC080930207872D0E94AF080C
:10586000882309F4A6C080930307892D8A2909F4A7
:1058700045C08091FC069091FD060E94C4169C01D3
:105880009091FA06992309F476C221353105B0F1D9
:105890009F3F19F09F5F9093FA06992059F00E945C
:1058A0006D089FEF19140CF491E0899F802D11244D
:1058B00080930407AA2059F00E946D0891E01A1401
:1058C0000CF09FEF899F802D112480930507809114
:1058D0000407882399F090900507992079F00E9499
:1058E000AF08882309F468C080930407892D0E94BB
:1058F000AF08882309F463C08093050780910107EE
:10590000881117C080910207882311F0801311C0FD
:1059100020910307222311F012130BC09091050769
:10592000992311F09A1105C030910407332309F42B
:1059300014C20E94DF1686E0FE013196A0E0B7E0B7
:1059400001900D928A95E1F70E945C089091C50341
:10595000891721F08093C5030E94A7078091220731
:10596000843009F0FCCD83E08093E9008091E80069
:1059700082FFF5CD8091E80090E085FF05C00E9490
:1059800058068823F9F091E08091E8008B778093A6
:10599000E800992309F4E3CD8981EFEFE80FE531C1
:1059A000D0F5F0E0E65EFC4C0C944632B092020773
:1059B00054CFB092030759CFB092040797CFB0925B
:1059C00005079CCF80E2882E912C8E010F5F1F4F20
:1059D0008091E80085FD0AC08091E8008B77809374
:1059E000E8000E945806882399F3CDCF8091F100FA
:1059F000F80181938F01F1E08F1A910849F7C3CF25
:105A00001A828CE08B831BC08A81823009F4AAC180
:105A100028F4813061F08FEF898311C08330C1F0A9
:105A20008430C9F71B821C821D821E8208C00E941E
:105A3000A7070E944C326B837C838D839E8340E258
:105A400050E0BE016F5F7F4F82E00E94A70E87CDBE
:105A50002B81822F90E0FE013496245E8A309105DE
:105A600070F7DC01AA53BC4F3C9131930196281387
:105A7000F5CFE5CF8A81823059F0853061F680918B
:105A8000DA0321E082278093DA0310925001D7CF06
:105A90006B817C818D819E810E944C3288E290E0F6
:105AA0000E94A032CCCF4C816B818A810E94B210BF
:105AB0009827892798279E838D83C1CF2D813E818A
:105AC0003227232732274C816B818A810E94C50FA0
:105AD000B6CF0E94EB0FB3CF9A81933009F09BCFE2
